:020000040000FA
:040000003BEF00F0E2
:100008005B82FACF03F0FBCF04F00E01C2A90FEF19
:1000180000F011EF00F01CEF00F0CAA916EF00F095
:1000280018EF00F01CEF00F061EC63F035EF00F022
:10003800F2AC21EF00F023EF00F035EF00F0C6A19D
:1000480028EF00F02AEF00F035EF00F0CEA12FEFF7
:1000580000F031EF00F035EF00F0E7EC6BF035EF32
:1000680000F004C0FBFF03C0FAFF5B921100818E11
:100078003EEF00F00DEF44F04BC0D9FF4CC0DAFF63
:10008800DECF60F0DDCF61F060C0F6FF61C0F7FF42
:10009800000EF86E0E0EF76403D00800F55005D078
:1000A800F6CFE9FFF7CFEAFFEF50250AD8A45FEFB4
:1000B80000F061EF00F060EF06F04BC0D9FF4CC0D4
:1000C800DAFFDE2A000EDD22000E0101C96F000EE4
:1000D800C86FC8C1CCF1C9C1CDF1CA69CB69000EDE
:1000E8000001716F000E706FD5EF00F00101CC8137
:1000F8004BC0D9FF4CC0DAFFDE2A000EDD22D5EF57
:1001080000F00101CC837CEF00F00101CC857CEF8D
:1001180000F00101CC877CEF00F00101CC897CEF75
:1001280000F0000E716F010E706FD5EF00F04BC03C
:10013800D9FF4CC0DAFFDECF60F0DDCF61F060C0E0
:10014800F6FF61C0F7FF000EF86E0E0EF76403D0DD
:100158000800F55005D0F6CFE9FFF7CFEAFFEF50DA
:100168000001626F636B6351000AD8B4BEEF00F000
:1001780095EF00F06251200AD8B48DEF00F0030A21
:10018800D8B491EF00F0080AD8B489EF00F0060A55
:10019800D8B47AEF00F01D0AD8B485EF00F095EFD7
:1001A80000F0000170517111D8B4DDEF00F0DFEFFD
:1001B80000F09BEF00F00101CCA1E5EF00F0E7EFC4
:1001C80000F0E8EF00F0CC934BC0D9FF4CC0DAFF49
:1001D800DECF60F0DDCF61F060C0F6FF61C0F7FFF1
:1001E800000EF86E0E0EF76403D00800F55005D027
:1001F800F6CFE9FFF7CFEAFFEF502A0AD8A407EFB6
:1002080001F009EF01F033EF01F04BC0D9FF4CC00A
:10021800DAFFDE2A000EDD224DC0D9FF4EC0DAFF1C
:10022800DFCF60F0020EDE26DFCF61F0000EDD22A8
:1002380060C0D9FF61C0DAFFDECFC8F1DDCFC9F1F8
:100248000101C9BF2CEF01F02AEF01F087EF01F09F
:10025800CC81C86DC91FD8B0C92B87EF01F04BC03E
:10026800D9FF4CC0DAFFDECF0CF0DDCF0DF0B5ECD6
:1002780034F00CC0C8F10DC0C9F14AEF01F04BC011
:10028800D9FF4CC0DAFFDE2A000EDD22D00E0001B5
:10029800606FFF0E616F4BC0D9FF4CC0DAFFDECF35
:1002A80062F0DDCF63F062C0F6FF63C0F7FF000EB7
:1002B800F86E0E0EF76403D00800F55005D0F6CF9F
:1002C800E9FFF7CFEAFFEF500001646F656B6051FB
:1002D80064276151652365510AE10A0E645DD8A05F
:1002E80078EF01F07BEF01F0010E7CEF01F0000EDA
:1002F800726F736B72517311D8A485EF01F087EF99
:1003080001F043EF01F04BC0D9FF4CC0DAFFDECF5C
:1003180060F0DDCF61F060C0F6FF61C0F7FF000E4E
:10032800F86E0E0EF76403D00800F55005D0F6CF2E
:10033800E9FFF7CFEAFFEF502E0AD8A4A6EF01F0A5
:10034800A8EF01F046EF02F0000E0101CB6F000E9E
:10035800CA6F4BC0D9FF4CC0DAFFDE2A000EDD227F
:100368004BC0D9FF4CC0DAFFDECF60F0DDCF61F0C3
:1003780060C0F6FF61C0F7FF000EF86E0E0EF7645E
:1003880003D00800F55005D0F6CFE9FFF7CFEAFF14
:10039800EF502A0AD8A4D3EF01F0D5EF01F0F2EF1D
:1003A80001F04BC0D9FF4CC0DAFFDE2A000EDD2277
:1003B8004DC0D9FF4EC0DAFFDFCF60F0020EDE2657
:1003C800DFCF61F0000EDD2260C0D9FF61C0DAFF27
:1003D800DECFCAF1DDCFCBF146EF02F04BC0D9FF3B
:1003E8004CC0DAFFDECF0CF0DDCF0DF0B5EC34F009
:1003F8000CC0CAF10DC0CBF109EF02F04BC0D9FF18
:100408004CC0DAFFDE2A000EDD22D00E0001606F3C
:10041800FF0E616F4BC0D9FF4CC0DAFFDECF62F030
:10042800DDCF63F062C0F6FF63C0F7FF000EF86E21
:100438000E0EF76403D00800F55005D0F6CFE9FF9B
:10044800F7CFEAFFEF500001646F656B60516427D6
:100458006151652365510AE10A0E645DD8A037EF42
:1004680002F03AEF02F0010E3BEF02F0000E746F5B
:10047800756B74517511D8A444EF02F046EF02F081
:1004880002EF02F04BC0D9FF4CC0DAFFDECF60F0BC
:10049800DDCF61F060C0F6FF61C0F7FF000EF86EB7
:1004A8000E0EF76403D00800F55005D0F6CFE9FF2B
:1004B800F7CFEAFFEF50640AD8B465EF02F067EFB0
:1004C80002F088EF02F04BC0D9FF4CC0DAFFDECF54
:1004D80060F0DDCF61F060C0F6FF61C0F7FF000E8D
:1004E800F86E0E0EF76403D00800F55005D0F6CF6D
:1004F800E9FFF7CFEAFFEF50690AD8A486EF02F0C8
:1005080088EF02F0C9EF02F04BC0D9FF4CC0DAFF08
:10051800DE2A000EDD224DC0D9FF4EC0DAFFDFCF44
:1005280060F0020EDE26DFCF61F0000EDD2260C033
:10053800D9FF61C0DAFFDECF76F0DDCF77F00001BA
:10054800000E77BFFF0E786F796F7A6F7B6F7C6FC5
:100558007D6F49C022F04AC023F076C024F077C0EE
:1005680025F078C026F079C027F07AC028F07BC043
:1005780029F07CC02AF07DC02BF055EC21F022C078
:1005880049F023C04AF08DEF06F04BC0D9FF4CC0AC
:10059800DAFFDECF0FF0DDCF10F0E20E116EFF0EA6
:1005A800126E000E146E020E136EF9EC41F00F502D
:1005B8001010D8B4E2EF02F0E4EF02F0FFEF02F01F
:1005C8004BC0D9FF4CC0DAFFDECF0FF0DDCF10F003
:1005D800E50E116EFF0E126E000E146E020E136EF3
:1005E800F9EC41F00F501010D8A4FDEF02F0FFEF26
:1005F80002F043EF03F0020E4BC0D9FF4CC0DAFF04
:10060800DE26000EDD224DC0D9FF4EC0DAFFDFCF57
:1006180060F0040EDE26DFCF61F0000EDD2260C040
:10062800D9FF61C0DAFFDECF62F0DECF63F0DECF44
:1006380064F0DECF65F062C066F063C067F064C046
:1006480068F065C069F000016A6B69BF6A696AC0D1
:100658006BF06AC06CF06AC06DF066C076F067C077
:1006680077F068C078F069C079F06AC07AF06BC03A
:100678007BF06CC07CF06DC07DF0ADEF02F04BC03C
:10068800D9FF4CC0DAFFDECF60F0DDCF61F060C08B
:10069800F6FF61C0F7FF000EF86E0E0EF76403D088
:1006A8000800F55005D0F6CFE9FFF7CFEAFFEF5085
:1006B8006E0AD8A462EF03F064EF03F09DEF03F035
:1006C8004BC0D9FF4CC0DAFFDE2A000EDD224DC038
:1006D800D9FF4EC0DAFFDFCF60F0020EDE26DFCF93
:1006E80061F0000EDD2260C0D9FF61C0DAFFDECF05
:1006F8007EF0DDCF7FF07EC0F6FF7FC0F7FF000EF3
:10070800F86E0E0EF76407D0C6C1F5FF0D00C7C11D
:10071800F5FF0C0008D0F6CFE9FFF7CFEAFFC6C116
:10072800EEFFC7C1EFFF000E4A6E000E496E8DEF57
:1007380006F04BC0D9FF4CC0DAFFDECF0FF0DDCF9B
:1007480010F0E80E116EFF0E126E000E146E020EFF
:10075800136EF9EC41F00F501010D8A4B6EF03F067
:10076800B8EF03F002EF04F0020E4BC0D9FF4CC003
:10077800DAFFDE26000EDD224DC0D9FF4EC0DAFFBB
:10078800DFCF60F0020EDE26DFCF61F0000EDD2243
:1007980060C0D9FF61C0DAFFDECF7EF0DDCF7FF029
:1007A800C6C160F0C7C161F0000E000161BFFF0E55
:1007B800626F636F7EC0F6FF7FC0F7FF000EF86EB2
:1007C8000E0EF7640DD060C0F5FF0D0061C0F5FF97
:1007D8000D0062C0F5FF0D0063C0F5FF0C000CD0E2
:1007E800F6CFE9FFF7CFEAFF60C0EEFF61C0EEFF8A
:1007F80062C0EEFF63C0EFFF97EF03F04BC0D9FF75
:100808004CC0DAFFDECF60F0DDCF61F060C0F6FFEC
:1008180061C0F7FF000EF86E0E0EF76403D00800F3
:10082800F55005D0F6CFE9FFF7CFEAFFEF50730A8E
:10083800D8A421EF04F023EF04F04EEF04F04BC0EE
:10084800D9FF4CC0DAFFDE2A000EDD224DC0D9FFE9
:100858004EC0DAFFDFCF60F0020EDE26DFCF61F098
:10086800000EDD2260C0D9FF61C0DAFFDECF6EF076
:10087800DDCF6FF049C010F04AC011F06EC012F021
:100888006FC013F0EDEC3BF010C049F011C04AF016
:100898008DEF06F04BC0D9FF4CC0DAFFDECF60F019
:1008A800DDCF61F060C0F6FF61C0F7FF000EF86EA3
:1008B8000E0EF76403D00800F55005D0F6CFE9FF17
:1008C800F7CFEAFFEF50750AD8A46DEF04F06FEF89
:1008D80004F0B1EF04F04BC0D9FF4CC0DAFFDE2AB8
:1008E800000EDD224DC0D9FF4EC0DAFFDFCF60F029
:1008F800020EDE26DFCF61F0000EDD2260C0D9FFD8
:1009080061C0DAFFDECF62F0DDCF63F062C081F054
:1009180063C082F00001836B846B856B866B876B89
:10092800886B49C022F04AC023F081C024F082C0FD
:1009380025F083C026F084C027F085C028F086C043
:1009480029F087C02AF088C02BF0B3EC33F022C01E
:1009580049F023C04AF08DEF06F04BC0D9FF4CC0D8
:10096800DAFFDECF0FF0DDCF10F0DB0E116EFF0ED9
:10097800126E000E146E020E136EF9EC41F00F5059
:100988001010D8A4CAEF04F0CCEF04F0FBEF04F089
:10099800020E4BC0D9FF4CC0DAFFDE26000EDD2266
:1009A8004DC0D9FF4EC0DAFFDFCF60F0040EDE265F
:1009B800DFCF61F0000EDD2260C0D9FF61C0DAFF31
:1009C800DECF62F0DECF63F0DECF64F0DECF65F01D
:1009D80000016251816F6351826F6451836F655169
:1009E800846F856B866B876B886B95EF04F04BC0C3
:1009F800D9FF4CC0DAFFDECF60F0DDCF61F060C018
:100A0800F6FF61C0F7FF000EF86E0E0EF76403D014
:100A18000800F55005D0F6CFE9FFF7CFEAFFEF5011
:100A2800780AD8B41AEF05F01CEF05F03DEF05F091
:100A38004BC0D9FF4CC0DAFFDECF60F0DDCF61F0EC
:100A480060C0F6FF61C0F7FF000EF86E0E0EF76487
:100A580003D00800F55005D0F6CFE9FFF7CFEAFF3D
:100A6800EF50580AD8A43BEF05F03DEF05F09BEF97
:100A780005F04BC0D9FF4CC0DAFFDECF60F0DDCF08
:100A880061F060C0F6FF61C0F7FF000EF86E0E0E51
:100A9800F76403D00800F55005D0F6CFE9FFF7CF8B
:100AA800EAFFEF500001806F4BC0D9FF4CC0DAFF5E
:100AB800DE2A000EDD224DC0D9FF4EC0DAFFDFCF9F
:100AC80060F0020EDE26DFCF61F0000EDD2260C08E
:100AD800D9FF61C0DAFFDECF62F0DDCF63F062C01C
:100AE80081F063C082F0836B846B856B866B876B48
:100AF800886B49C022F04AC023F081C024F082C02C
:100B080025F083C026F084C027F085C028F086C071
:100B180029F087C02AF088C02BF080C02CF0C7ECE1
:100B280022F022C049F023C04AF08DEF06F04BC0F6
:100B3800D9FF4CC0DAFFDECF0FF0DDCF10F0EB0E9F
:100B4800116EFF0E126E000E146E020E136EF9EC8B
:100B580041F00F501010D8B4B4EF05F0B6EF05F01F
:100B6800D1EF05F04BC0D9FF4CC0DAFFDECF0FF054
:100B7800DDCF10F0BF0E116EFE0E126E000E146E59
:100B8800020E136EF9EC41F00F501010D8A4CFEFFD
:100B980005F0D1EF05F01FEF06F04BC0D9FF4CC0B0
:100BA800DAFFDECF60F0DDCF61F0010E00016027D3
:100BB800000E612360C0F6FF61C0F7FF000EF86EFB
:100BC8000E0EF76403D00800F55005D0F6CFE9FF04
:100BD800F7CFEAFFEF500001806F020E4BC0D9FF3C
:100BE8004CC0DAFFDE26000EDD224DC0D9FF4EC014
:100BF800DAFFDFCF60F0040EDE26DFCF61F0000EF3
:100C0800DD2260C0D9FF61C0DAFFDECF62F0DECF3F
:100C180063F0DECF64F0DECF65F06251816F63511F
:100C2800826F6451836F6551846F856B866B876BA8
:100C3800886B7DEF05F04BC0D9FF4CC0DAFFDECFE3
:100C480060F0DDCF61F060C0F6FF61C0F7FF000E15
:100C5800F86E0E0EF76403D00800F55005D0F6CFF5
:100C6800E9FFF7CFEAFFEF50250AD8A43EEF06F0D8
:100C780040EF06F057EF06F04BC0D9FF4CC0DAFF43
:100C8800DE2A000EDD22000E086E250E076E49C012
:100C980009F04AC00AF055EC54F0000E4A6E010EF5
:100CA800496E8DEF06F04BC0D9FF4CC0DAFFDE2A43
:100CB800000EDD2297EF03F04BC0D9FF4CC0DAFFDE
:100CC800DECF60F0DDCF61F060C0F6FF61C0F7FFF6
:100CD800000EF86E0E0EF76403D00800F55005D02C
:100CE800F6CFE9FFF7CFEAFFEF500001626F6251DC
:100CF800076E086A49C009F04AC00AF055EC54F07A
:100D08004BC0D9FF4CC0DAFFDE2A000EDD2251EFBE
:100D180006F01200000120EE0AF0A351D926A451D2
:100D2800DA22DECF05F0DECF06F0DECF07F0DECF29
:100D380008F044EC52F005C057F006C058F057C010
:100D480005F058C006F0000E086E070E076E0BEC93
:100D58006AF07C0E0001A56F030EA66F0550A5274B
:100D68000650A62357C005F058C006F0000E086EBE
:100D78001F0E076E0BEC6AF01B0E0524D96E030ECE
:100D88000620DA6EA5C0DEFFA6C0DDFF57C005F05D
:100D980058C006F0000E086E070E076E0BEC6AF0DE
:100DA8006E0E0001A56F030EA66F0550A52706500D
:100DB800A62357C005F058C006F0000E086E1F0E97
:100DC800076E0BEC6AF01D0E0524D96E030E062083
:100DD800DA6EA5C0DEFFA6C0DDFF57C005F058C01B
:100DE80006F0000E086E1F0E076E0BEC6AF01D0E63
:100DF8000524D96E030E0620DA6EDECF59F0DDCF5A
:100E08005AF057C005F058C006F0000E086E1F0EC5
:100E1800076E0BEC6AF01B0E0524D96E030E062034
:100E2800DA6EDECFDAF1DDCFDBF157C005F058C05E
:100E380006F0000E086E1F0E076E0BEC6AF00C0E23
:100E48000524D96E030E0620DA6E000EDE6E000E43
:100E5800DD6E57C005F058C006F0000E086E1F0E74
:100E6800076E0BEC6AF0190E0524D96E030E0620E6
:100E7800DA6E10EE05F05950E1265A50E222DECF24
:100E8800E6FFDDCFE5FF010E5BEC69F0010E0B6EAE
:100E980057C005F058C006F0000E086E1F0E076E0A
:100EA8000BEC6AF0080E0524D96E030E0620DA6EE4
:100EB800DF500C6E57C005F058C006F0000E086EE3
:100EC8001F0E076E0BEC6AF0060E0524D96E030E92
:100ED8000620DA6EDF509DEC56F00BC0DEF00CC039
:100EE800DFF00DC0E0F00EC0E1F0B50E00018F6F2D
:100EF800000E906FF10E916FFF0E926FDEC093F0AF
:100F0800DFC094F0E0C095F0E1C096F0E6EC62F046
:100F1800B50E336E000E346EFCEC6BF0FF0E4DEC2C
:100F28006BF057C005F058C006F0000E086E1F0E93
:100F3800076E0BEC6AF0180E0524D96E030E062016
:100F4800DA6EDF50D8B4ABEF07F0ADEF07F0C8EFBB
:100F580007F057C005F058C006F0000E086E1F0EC7
:100F6800076E0BEC6AF0080E0524D96E030E0620F6
:100F7800DA6EDE50DE10DE10DE10D8A4C6EF07F001
:100F8800C8EF07F01BEF08F020EE04F05950D926FF
:100F98005A50DA22010110EE04F0DA51E126DB5151
:100FA800E222DFCFE7FF59C0D9FF5AC0DAFFDAC122
:100FB800E1FFDBC1E2FFDFCFE7FF20EE01F0595090
:100FC800D9265A50DA2210EE01F0DA51E126DB5127
:100FD800E222DFCFE7FF20EE02F05950D9265A501F
:100FE800DA2210EE02F0DA51E126DB51E222DFCFFD
:100FF800E7FF20EE03F05950D9265A50DA2210EEB6
:1010080003F0DA51E126DB51E222DFCFE7FF20EEE1
:1010180005F05950D9265A50DA2210EE05F0DA5167
:10102800E126DB51E222DECFE6FFDDCFE5FFB50E9C
:101038000F6E000E106E000E126E000E116E000E76
:10104800146E230E136E94EC25F057C005F058C0AB
:1010580006F0000E086E1F0E076E0BEC6AF0180EF5
:101068000524D96E030E0620DA6EDE04D8A43FEFFD
:1010780008F041EF08F094EF08F0010120EE04F0C9
:10108800DA51D926DB51DA2210EE04F05950E12664
:101098005A50E222DFCFE7FFDAC1D9FFDBC1DAFF1E
:1010A80059C0E1FF5AC0E2FFDFCFE7FF20EE01F0B1
:1010B800DA51D926DB51DA2210EE01F05950E12637
:1010C8005A50E222DFCFE7FF20EE02F0DA51D926AC
:1010D800DB51DA2210EE02F05950E1265A50E22292
:1010E800DFCFE7FF20EE03F0DA51D926DB51DA2211
:1010F80010EE03F05950E1265A50E222DFCFE7FF05
:1011080020EE05F0DA51D926DB51DA2210EE05F08F
:101118005950E1265A50E222DECFE6FFDDCFE5FF47
:1011280020EE05F05950D9265A50DA22DE50DE104A
:10113800D8B4A1EF08F0A3EF08F093EF0AF020EE7F
:1011480004F05950D9265A50DA22DF50D8A4AFEF0C
:1011580008F0B1EF08F034EF09F020EE05F059502F
:10116800D9265A50DA22010EDB5009E1020EDE5C64
:10117800D8A0C1EF08F0C3EF08F010EF09F0B50EE2
:101188000F6E000E106E20EE03F05950D9265A50FB
:10119800DA22DF50BDEC61F005C011F006C012F094
:1011A800000E146E200E136E58EC58F0B50E0B6E30
:1011B800000E0C6E02EC64F00B500001DA6F20EEAA
:1011C80005F05950D9265A50DA22DF50A56FA5519B
:1011D800DA5DA66FA629DB6FB50E0F6E000E106ED6
:1011E80020EE03F05950D9265A50DA22DF50BDECD0
:1011F80061F00001DB510524116E000E0620126E0D
:1012080020EE05F05950D9265A50DA22DECF13F0D5
:10121800DDCF14F058EC58F0B50E0F6E000E106EBE
:10122800FA0E116EFF0E126E000E146E010E136E82
:10123800CCEC5CF0B50E0B6E000E0C6E02EC64F09C
:101248000BC0E2F00CC0E3F0B50E296E000E2A6E5A
:10125800E2C02BF0E3C02CF0BBEC1FF093EF0AF0D8
:10126800EE0E296EFF0E2A6E000E2C6E020E2B6EED
:10127800BBEC1FF093EF0AF059C0D9FF5AC0DAFF50
:1012880010EE02F05950E1265A50E222E650800A48
:101298000001A76FDE50800AA75DD8A056EF09F0BD
:1012A80058EF09F093EF0AF059C0D9FF5AC0DAFF96
:1012B80010EE02F05950E1265A50E222DE50E618AC
:1012C800D8B469EF09F06BEF09F008EF0AF0B50E32
:1012D8000F6E000E106EFC0E116EFF0E126E000ED9
:1012E800146E010E136E58EC58F008EF0AF020EE59
:1012F80001F05950D9265A50DA2210EE03F059500D
:10130800E1265A50E222DE50E618D8B48EEF09F0F2
:1013180090EF09F008EF0AF020EE03F05950D926B3
:101328005A50DA22DF50BDEC61F005C00BF006C060
:101338000CF002EC64F00BC0D8F00CC0D9F0B50E7C
:101348000F6E000E106E20EE03F05950D9265A5039
:10135800DA22DF50BDEC61F005C011F006C012F0D2
:10136800D8C013F0D9C014F0CCEC5CF0B50E0F6EF9
:10137800000E106EFA0E116EFF0E126E000E146E35
:10138800010E136ECCEC5CF0B50E0B6E000E0C6EFD
:1013980002EC64F00BC0E2F00CC0E3F0B50E296E6D
:1013A800000E2A6EE2C02BF0E3C02CF0BBEC1FF05D
:1013B8000009D8B4E2EF09F0E4EF09F008EF0AF009
:1013C80020EE02F05950D9265A50DA2259C0E1FFCE
:1013D8005AC0E2FFDFCFE7FF20EE03F05950D926CD
:1013E8005A50DA2210EE01F05950E1265A50E22202
:1013F800DFCFE7FF20EE04F05950D9265A50DA2201
:10140800000EDF6EA8EF0BF020EE03F05950D9263E
:101418005A50DA22F8EC49F0DF6EDE28D8A417EF2C
:101428000AF019EF0AF07BEF09F020EE04F05950AA
:10143800D9265A50DA22010EDF6EB50E0F6E000E55
:10144800106E000E126E000E116E000E146E230E3A
:10145800136E94EC25F0B50E0F6E000E106EEE0EA6
:10146800116EFF0E126E000E146E020E136E58EC03
:1014780058F0B50E0B6E000E0C6E02EC64F00BC04B
:10148800E2F00CC0E3F0B50E296E000E2A6EE2C041
:101498002BF0E3C02CF0BBEC1FF00009D8B457EFD9
:1014A8000AF059EF0AF075EF0AF020EE02F05950F1
:1014B800D9265A50DA2259C0E1FF5AC0E2FFDFCFDD
:1014C800E7FF20EE03F05950D9265A50DA2210EEE1
:1014D80001F05950E1265A50E222DFCFE7FFA8EF8A
:1014E8000BF020EE02F05950D9265A50DA22000E9D
:1014F800DF6E59C0E1FF5AC0E2FFDFCFE7FF20EE01
:1015080003F05950D9265A50DA22000EDF6E10EE39
:1015180001F05950E1265A50E222DFCFE7FF20EED2
:1015280002F05950D9265A50DA2223EC6BF0DF6EBC
:10153800DE28D8A4A2EF0AF0A4EF0AF040EF09F0E1
:1015480020EE02F05950D9265A50DA22DE28D8A4C3
:10155800B0EF0AF0B2EF0AF0A8EF0BF020EE04F0BB
:101568005950D9265A50DA22DF50D8A4BEEF0AF0D3
:10157800C0EF0AF0F4EF0AF020EE04F05950D92633
:101588005A50DA22010EDF6EB50E0F6E000E106E85
:10159800EE0E116EFF0E126E000E146E020E136E1A
:1015A800CCEC5CF0B50E0B6E000E0C6E02EC64F029
:1015B8000BC0E2F00CC0E3F0B50E296E000E2A6EE7
:1015C800E2C02BF0E3C02CF0BBEC1FF00009D8B44C
:1015D800F0EF0AF0F2EF0AF0F4EF0AF0A8EF0BF0E0
:1015E800000E5BEC69F0000E0B6E57C005F058C09A
:1015F80006F0000E086E1F0E076E0BEC6AF0080E60
:101608000524D96E030E0620DA6EDF500C6E57C023
:1016180005F058C006F0000E086E1F0E076E0BECA2
:101628006AF0060E0524D96E030E0620DA6EDF5026
:101638009DEC56F00BC0DEF00CC0DFF00DC0E0F002
:101648000EC0E1F0DEC005F0DFC006F0E0C007F034
:10165800E1C008F08AEC63F00001A56FA551DC6FCA
:10166800DD6BDEC005F0DFC006F0E0C007F0E1C0CA
:1016780008F0DCC009F085EC3DF005C0DEF006C0DE
:10168800DFF007C0E0F008C0E1F0A3C019F0A4C083
:101698001AF0DE0E1B6E000E1C6EDCC01DF0DDC0E5
:1016A8001EF09CEC64F0890E056E020E066E79EC55
:1016B8005AF005C0A5F006C0A6F007C0A7F008C0FC
:1016C800A8F009C0A9F00AC0AAF00BC0ABF00CC082
:1016D800ACF0020E0001A525AD6F000EA621AE6F7D
:1016E800000EA721AF6F000EA821B06F000EA92130
:1016F800B16F000EAA21B26F000EAB21B36F000EBE
:10170800AC21B46F57C005F058C006F0000E086E43
:101718001F0E076E0BEC6AF0100E0524D96E030E2F
:101728000620DA6EADC0DEFFAEC0DEFFAFC0DEFF62
:10173800B0C0DEFFB1C0DEFFB2C0DEFFB3C0DEFF67
:10174800B4C0DEFF79EC6CF01200000E0101196FD5
:10175800D6EF0BF0010E0101216F000E1E6F000E77
:10176800226F000E236FF4EF0BF0000E0101216FC2
:10177800010E1E6F010E226F010E236FF4EF0BF0A6
:10178800000E0101216F010E226F010E236FF4EF8D
:101798000BF0000E0101216F000E226F000E236F67
:1017A800F4EF0BF0CE510001F36FF46BF451000A23
:1017B800D8B4E1EF0BF0AEEF0BF0F351000AD8B458
:1017C800AEEF0BF0010AD8B4B9EF0BF0030AD8B4A6
:1017D800C4EF0BF0010AD8B4CDEF0BF0AEEF0BF06D
:1017E8002151D8A4FAEF0BF0FCEF0BF014EF0CF03A
:1017F8001E51D8A402EF0CF004EF0CF014EF0CF01B
:101808002251D8A40AEF0CF00CEF0CF014EF0CF0F6
:101818002351D8B412EF0CF014EF0CF05EEF0FF078
:1018280026EEB7F011EE29F02F0EDBCFE3FFE80626
:10183800FCE2C9C349F1CAC34AF1CBC34BF1CCC3DB
:101848004CF10001F2BF32EF0CF0F25109E1F10E58
:10185800F15DD8A032EF0CF034EF0CF043EF0FF04D
:101868001DEC69F0060407E1020E0718D8A43FEF43
:101878000CF041EF0CF08AEF0EF0DCEC6BF0060A8E
:10188800D8A449EF0CF04BEF0CF08AEF0EF0DCEC2B
:101898006BF08CEC66F00301C95106180DE1CA51D2
:1018A80007180AE1CB51081807E1CC510918D8A448
:1018B80060EF0CF062EF0CF08AEF0EF01DEC69F0AF
:1018C8001DEC69F08CEC66F08CEC66F006C029F132
:1018D80007C02AF108C02BF109C02CF10101292900
:1018E8000CE12A290AE12B2908E12C29D8B47FEF39
:1018F8000CF081EF0CF08AEF0EF029050BE17F0E5A
:101908002C192A112B11D8B48CEF0CF08EEF0CF097
:101918008AEF0EF08CEC66F006C01AF107C01BF1D6
:1019280008C01CF109C01DF101011A290CE11B298D
:101938000AE11C2908E11D29D8B4A5EF0CF0A7EF8E
:101948000CF08AEF0EF01A050BE17F0E1D191B1122
:101958001C11D8B4B2EF0CF0B4EF0CF08AEF0EF013
:101968008CEC66F0000E066E010E076E000E096E16
:10197800100E086E0CEC5DF0000E056E010E066E82
:10198800A30E076E030E086E000E0A6E060E096E91
:1019980088EC53F005500610D8B4D5EF0CF0D7EF0B
:1019A8000CF0FDEF0CF0000E056E010E066ECF0E6A
:1019B800076EFC0E086E000E0A6E060E096E88ECA5
:1019C80053F005500610D8B4ECEF0CF0EEEF0CF025
:1019D800FDEF0CF0000E0B6E010E0C6E02EC64F0C5
:1019E8000B500C10D8A4FBEF0CF0FDEF0CF05EEFE1
:1019F8000FF0000E0E6E400E0D6E2CEC5FF0000E18
:101A08000E6E800E0D6E2CEC5FF08CEC66F0630EA3
:101A180006180DE1530E07180AE1820E081807E1AF
:101A2800630E0918D8A41BEF0DF01DEF0DF08AEF17
:101A38000EF00001100EF127FF0EF2237AEF0EF0E0
:101A4800DCEC6BF00101186FDCEC6BF00101286F26
:101A580028510001F36FF46B020EF327000EF423F4
:101A6800F351F15FF451F25B4FEF0EF08CEC66F03E
:101A780006C02DF107C02EF108C02FF109C030F1C2
:101A88007AEF0EF08CEC66F006C031F107C032F147
:101A980008C033F109C034F17AEF0EF0000E0101ED
:101AA8001F6F81EF0DF08CEC66F006C010F107C0D7
:101AB80011F108C012F109C013F1020E01011F61F2
:101AC80068EF0DF06AEF0DF07FEF0DF01F51040D78
:101AD8000C0EF326000EF422290EF324D96E010E03
:101AE800F420DA6E10C1DEFF11C1DEFF12C1DEFF85
:101AF80013C1DEFF1F2B040E285F040E286187EF39
:101B08000DF089EF0DF057EF0DF07AEF0EF0000EA3
:101B18000101206FBAEF0DF08CEC66F006C014F1ED
:101B280007C015F108C016F109C017F1020E01012E
:101B38002061A1EF0DF0A3EF0DF0B8EF0DF02051EB
:101B4800040D140EF326000EF422290EF324D96E88
:101B5800010EF420DA6E14C1DEFF15C1DEFF16C1D6
:101B6800DEFF17C1DEFF202B040E285F040E28615C
:101B7800C0EF0DF0C2EF0DF090EF0DF07AEF0EF020
:101B8800030E01012865CBEF0DF0CDEF0DF07AEFD4
:101B98000EF08CEC66F006C024F107C025F108C0F1
:101BA80026F109C027F124C1F3F025C1F4F026C1BC
:101BB800F5F027C1F6F00001D890F633F533F43389
:101BC800F333F3C04DF1F4C04EF1F5C04FF1F6C058
:101BD80050F14DC151F14EC152F14FC153F150C1B5
:101BE80054F14DC1F3F04EC1F4F04FC1F5F050C1BE
:101BF800F6F0D890F633F533F433F333F3C024F129
:101C0800F4C025F1F5C026F1F6C027F101012451F1
:101C1800512725515223265153232751542324C198
:101C2800F3F025C1F4F026C1F5F027C1F6F0000164
:101C3800D890F633F533F433F333F35101015127D8
:101C48000001F451010152230001F5510101532310
:101C58000001F65101015423040E0101285F7AEFB7
:101C68000EF08CEC66F006C055F107C056F108C0BE
:101C780057F109C058F130EF0EF0DCEC6BF00101C0
:101C8800196F28077AEF0EF028C10DF00E6A2CECB8
:101C98005FF07AEF0EF0010118510001F36FF46B59
:101CA800F451000AD8B45BEF0EF048EF0EF0F35190
:101CB800010AD8B43AEF0DF0020AD8B446EF0DF095
:101CC800050AD8B452EF0DF02C0AD8B48BEF0DF0FA
:101CD800190AD8B4C4EF0DF0060AD8B441EF0EF0D3
:101CE800030AD8B435EF0EF048EF0EF00001F2BF4A
:101CF80088EF0EF0F25106E1F105D8B086EF0EF04C
:101D080088EF0EF024EF0DF043EF0FF043EF0FF0E4
:101D180001012151D8B493EF0EF095EF0EF0A3EF27
:101D28000EF021EE29F013EEA9F02F0EDBCFE3FF22
:101D3800E806FCE2EDEC6CF0010E0101CE6F1E51DD
:101D4800D8B4A9EF0EF0ABEF0EF05EEF0FF0D9ECC0
:101D58006CF05EEF0FF001012351D8B4B6EF0EF02E
:101D6800B8EF0EF05EEF0FF04DC1CDF34EC1CEF3DC
:101D78004FC1CFF350C1D0F351C1D1F352C1D2F307
:101D880053C1D3F354C1D4F3A9C300F2AAC301F2D7
:101D9800ABC302F2ACC303F2B5C304F2B6C305F297
:101DA800B7C306F2B8C307F2B9C308F2BAC309F257
:101DB800BBC30AF2BCC30BF2B1C310F2B2C311F237
:101DC800B3C312F2B4C313F2C5C314F2C6C315F2F7
:101DD800C7C316F2C8C317F2ADC30CF2AEC30DF2F7
:101DE800AFC30EF2B0C30FF20301BD51BE11BF1154
:101DF800C011D8B402EF0FF004EF0FF01FEF0FF08F
:101E0800BDC318F2BEC319F2BFC31AF2C0C31BF296
:101E1800C151C211C311C411D8B415EF0FF017EF97
:101E28000FF01FEF0FF0C1C31CF2C2C31DF2C3C3F2
:101E38001EF2C4C31FF2030E0101CE6F5EEF0FF056
:101E480001012251D8B42BEF0FF02DEF0FF05EEF08
:101E58000FF0040E0301CD6F000ECE6F000ECF6F92
:101E6800000ED06F020ED16F000ED26F000ED36F2E
:101E7800000ED46F000E0101CE6F5EEF0FF001016E
:101E880019510001F36FF46BF451000AD8B44FEF05
:101E98000FF05EEF0FF0F351020AD8B48CEF0EF09A
:101EA800070AD8B4AFEF0EF0030AD8B424EF0FF046
:101EB8005EEF0FF012006A0E066E000E076E000E3F
:101EC800096E1C0E086E0CEC5DF006C060F007C0D1
:101ED80061F01C0E000160196111D8A476EF0FF0B3
:101EE80078EF0FF005EF13F0000E626F370E686F92
:101EF800060E696F6A512A6E296A6AC02BF06BC098
:101F08002CF02CC02BF02C6AFF0E2B16000E2C1672
:101F180029502B122A502C122B042C10D8B497EFCE
:101F28000FF099EF0FF09DEF0FF005EF13F005EFAD
:101F380013F06C512A6E296A20EE6CF0DECF2BF07C
:101F4800DDCF2CF02CC02BF02C6AFF0E2B16000EC8
:101F58002C1629502B122A502C12080E2C182B1034
:101F6800D8B4B9EF0FF0BBEF0FF0BDEF0FF005EFEE
:101F780013F0060E6E19D8B4C4EF0FF0C6EF0FF0C9
:101F8800C8EF0FF005EF13F0040E6F19D8B4CFEFB8
:101F98000FF0D1EF0FF0D3EF0FF005EF13F0080EAD
:101FA800666F20EE06F06851D9266951DA22FF0ED5
:101FB80078152D6E000E79152E6E000E7A152F6E7F
:101FC800000E7B15306E2DC030F02F6A2E6A2D6AF8
:101FD80010EE78F0000EE614316EFF0EE614326E45
:101FE800000EE614336E000EE614346E33C034F07F
:101FF80032C033F031C032F0316A78C035F079C080
:1020080036F07AC037F07BC038F036C035F037C0CC
:1020180036F038C037F0386A000E3514396EFF0EC6
:1020280036143A6E000E37143B6E000E38143C6EB0
:1020380078C03DF079C03EF07AC03FF07BC040F0F8
:10204800190E2CEF10F0D89040323F323E323D321C
:10205800E82E27EF10F0FF0E3D14416E000E3E14DF
:10206800426E000E3F14436E000E4014446E395009
:102078004110456E3A504210466E3B504310476E31
:102088003C504410486E31504510496E325046104D
:102098004A6E335047104B6E345048104C6E2D50DA
:1020A80049104D6E2E504A104E6E2F504B104F6EE9
:1020B80030504C10506EDE504D180DE1DE504E1869
:1020C8000AE1DE504F1807E1DE505018D8A46FEF30
:1020D80010F071EF10F09AEF10F020EE0AF068514E
:1020E800D9266951DA22DE506C1907E1DE506D19E4
:1020F800D8A481EF10F083EF10F09AEF10F020EEE3
:102108000CF06851D9266951DA22000EDF6E20EEF4
:1021180072F068C0E1FF69C0E2FF050EDBCFE3FFA4
:10212800E806FCE2010E626FA7EF10F00D0E6827BB
:10213800000E692366076651D8A4A5EF10F0A7EF33
:1021480010F0D5EF0FF00201005101110211031137
:10215800D8B4B1EF10F0B3EF10F005EF13F0FF0EA5
:1021680000018215296E000E83152A6E000E841553
:102178002B6E000E85152C6E29C02CF02B6A2A6A4E
:10218800296A20EE82F0000EDE142D6EFF0EDE149A
:102198002E6E000EDE142F6E000EDE14306E2FC071
:1021A80030F02EC02FF02DC02EF02D6A82C031F0F5
:1021B80083C032F084C033F085C034F032C031F0CF
:1021C80033C032F034C033F0346A000E3114356E47
:1021D800FF0E3214366E000E3314376E000E3414B0
:1021E800386E82C039F083C03AF084C03BF085C0B5
:1021F8003CF0190E05EF11F0D8903C323B323A32E0
:102208003932E82E00EF11F0FF0E39143D6E000E42
:102218003A143E6E000E3B143F6E000E3C14406EA6
:1022280035503D10416E36503E10426E37503F10CB
:10223800436E38504010446E2D504110456E2E505C
:102248004210466E2F504310476E30504410486E6F
:1022580029504510496E2A5046104A6E2B50471097
:102268004B6E2C5048104C6E0201005149180DE17C
:1022780001514A180AE102514B1807E103514C1861
:10228800D8A449EF11F04BEF11F005EF13F000015E
:102298006251D8A452EF11F054EF11F033EF12F05D
:1022A800370E686F060E696F370E646F060E656F1E
:1022B800080E676F20EE0CF06451D9266551DA22BA
:1022C80010EE0CF06851E1266951E222DE50E65C1E
:1022D800D8B071EF11F073EF11F077EF11F064C01F
:1022E80068F065C069F00D0E6427000E6523670766
:1022F8006751D8A482EF11F084EF11F05EEF11F06E
:1023080020EE0CF06851D9266951DA22000EDF6EF2
:1023180020EE72F068C0E1FF69C0E2FF050EDBCF76
:10232800E3FFE806FCE2FF0E7815296E000E79152A
:102338002A6E000E7A152B6E000E7B152C6E29C0A6
:102348002CF02B6A2A6A296A20EE78F0000EDE1437
:102358002D6EFF0EDE142E6E000EDE142F6E000E94
:10236800DE14306E2FC030F02EC02FF02DC02EF0AE
:102378002D6A78C031F079C032F07AC033F07BC072
:1023880034F032C031F033C032F034C033F0346A44
:10239800000E3114356EFF0E3214366E000E3314F3
:1023A800376E000E3414386E78C039F079C03AF0C0
:1023B8007AC03BF07BC03CF0190EE8EF11F0D890E2
:1023C8003C323B323A323932E82EE3EF11F0FF0E5D
:1023D80039143D6E000E3A143E6E000E3B143F6EEB
:1023E800000E3C14406E35503D10416E36503E1084
:1023F800426E37503F10436E38504010446E2D5097
:102408004110456E2E504210466E2F504310476EB5
:1024180030504410486E29504510496E2A504610D5
:102428004A6E2B5047104B6E2C5048104C6E20EEC5
:1024380006F06851D9266951DA2249C0DEFF4AC040
:10244800DEFF4BC0DEFF4CC0DEFF20EE0AF0685115
:10245800D9266951DA226CC0DEFF6DC0DDFF710537
:102468007011D8A43AEF12F03CEF12F005EF13F018
:10247800720E186E000E196E080E1B6E060E1A6E7E
:1024880088EC29F00001636F6305D8A44EEF12F0C1
:1024980050EF12F09BEF0FF020EE72F010EE7CF090
:1024A800050EDBCFE3FFE806FCE2720E056E000EB8
:1024B800066EA30E076E030E086E000E0A6E060E59
:1024C800096EDAEC63F078C082F079C083F07AC0E4
:1024D80084F07BC085F0FF0E02010015296E000E06
:1024E80001152A6E000E02152B6E000E03152C6EB8
:1024F80029C02CF02B6A2A6A296A000E00152D6E55
:10250800FF0E01152E6E000E02152F6E000E03151C
:10251800306E2FC030F02EC02FF02DC02EF02D6A57
:1025280000C231F001C232F002C233F003C234F00B
:1025380032C031F033C032F034C033F0346A000EA8
:102548003114356EFF0E3214366E000E3314376EAA
:10255800000E3414386E00C239F001C23AF002C2DB
:102568003BF003C23CF0190EBFEF12F0D8903C329A
:102578003B323A323932E82EBAEF12F0FF0E3914F4
:102588003D6E000E3A143E6E000E3B143F6E000E78
:102598003C14406E35503D10416E36503E10426E30
:1025A80037503F10436E38504010446E2D50411044
:1025B800456E2E504210466E2F504310476E3050D5
:1025C8004410486E295045100001786F2A50461073
:1025D800796F2B5047107A6F2C5048107B6F020E82
:1025E800716F000E706F6A0E236E000E246E000E5F
:1025F800266E1C0E256E6DEC60F08EEC4EF005EF2D
:1026080013F01200000E0101A56F000EA46F50EC2C
:1026180066F00101A66FA6C119F01A6A000E1C6EB9
:10262800000E1B6E61EC61F019C0A7F11AC0A8F189
:102638000101A751A811D8B424EF13F026EF13F025
:1026480028EF13F011EF16F0650E066E020E076EF6
:10265800000E096E140E086E0CEC5DF0020165396F
:102668000F0B040AD8B43BEF13F03DEF13F03FEF24
:1026780013F011EF16F0FF0E751501015C6F000ED7
:102688000201761501015D6F000E02017715010147
:102698005E6F000E0201781501015F6F5CC15FF18A
:1026A8005E6B5D6B5C6B22EE75F0000EDE14606F86
:1026B800FF0EDE14616F000EDE14626F000EDE1472
:1026C800636F62C163F161C162F160C161F1606B06
:1026D80075C264F176C265F177C266F178C267F1B6
:1026E80065C164F166C165F167C166F1676B000E8B
:1026F8006415686FFF0E6515696F000E66156A6FC1
:10270800000E67156B6F75C26CF176C26DF177C2FA
:102718006EF178C26FF1190E97EF13F0D8906F33FE
:102728006E336D336C33E82E92EF13F0FF0E6C1599
:10273800706F000E6D15716F000E6E15726F000EC2
:102748006F15736F68517011746F69517111756FDE
:102758006A517211766F6B517311776F60517411F2
:10276800786F61517511796F625176117A6F635183
:1027780077117B6F5C5178110201756F01015D5112
:1027880079110201766F01015E517A110201776FAA
:1027980001015F517B110201786FFF0E7115010174
:1027A8005C6F000E0201721501015D6F000E0201DF
:1027B800731501015E6F000E0201741501015F6F50
:1027C8005CC15FF15E6B5D6B5C6B22EE71F0000EBD
:1027D800DE14606FFF0EDE14616F000EDE14626F90
:1027E800000EDE14636F62C163F161C162F160C102
:1027F80061F1606B71C264F172C265F173C266F116
:1028080074C267F165C164F166C165F167C166F1BB
:10281800676B000E6415686FFF0E6515696F000E13
:1028280066156A6F000E67156B6F71C26CF172C224
:102838006DF173C26EF174C26FF1190E29EF14F0C5
:10284800D8906F336E336D336C33E82E24EF14F069
:10285800FF0E6C15706F000E6D15716F000E6E1502
:10286800726F000E6F15736F68517011746F695134
:102878007111756F6A517211766F6B517311776FA1
:1028880060517411786F61517511796F62517611C9
:102898007A6F635177117B6F5C5178110201716F08
:1028A80001015D5179110201726F01015E517A11C6
:1028B8000201736F01015F517B110201746F71296D
:1028C8000AE1722908E1732906E17429D8A46FEF97
:1028D80014F071EF14F073EF14F011EF16F00051CB
:1028E80075190FE1015176190CE10251771909E1C7
:1028F80003517819D8B483EF14F085EF14F032EF50
:1029080015F07551761177117811D8B48EEF14F04F
:1029180090EF14F032EF15F075290CE176290AE1F1
:10292800772908E17829D8B49CEF14F09EEF14F0C9
:1029380032EF15F0FF0E001101015C6FFF0E02016E
:10294800011101015D6FFF0E0201021101015E6FAD
:10295800000E0201031101015F6F020175510101AF
:102968005C1915E10201765101015D1910E10201BE
:10297800775101015E190BE10201785101015F19DC
:10298800D8B4C9EF14F0CBEF14F032EF15F0FF0E06
:102998000201001101015C6FFF0E0201011101012A
:1029A8005D6F000E0201021101015E6F000E02014F
:1029B800031101015F6F0201755101015C1915E1F5
:1029C8000201765101015D1910E1020177510101FF
:1029D8005E190BE10201785101015F19D8B4F7EFD4
:1029E80014F0F9EF14F032EF15F0FF0E02010011A8
:1029F80001015C6F0201015101015D6F0201025189
:102A080001015E6F0201035101015F6F02017551FF
:102A180001015C1915E10201765101015D1910E10E
:102A28000201775101015E190BE1020178510101A0
:102A38005F19D8B422EF15F024EF15F032EF15F036
:102A48000201750509E1E00E781976117711D8A40D
:102A580030EF15F032EF15F011EF16F00201675163
:102A680001015D6F5C6B22EE67F0DECF5EF1DDCFBA
:102A78005FF15FC15EF15F6BFF0E5E17000E5F17BF
:102A88005C515E110201676F01015D515F11020126
:102A9800686F65510F0B01015C6FD8905C37D89057
:102AA8005C35A66F020165510F0B01015C6F050EC5
:102AB8005C6161EF15F063EF15F065EF15F011EF4C
:102AC80016F0020165510F0B01015C6F050E5C6584
:102AD80070EF15F072EF15F0FAEF15F0EC0EA62571
:102AE8000D6E0E6AFF0E0E222CEC5FF0FAEF15F059
:102AF80002017551761177117811D8A486EF15F077
:102B080088EF15F08AEF15F011EF16F00101A651C4
:102B18000201675D0101A46F02016851D8A0680530
:102B28000101A56FA4C119F0A5C11AF0000E1C6E11
:102B3800000E1B6E61EC61F019C0A7F11AC0A8F174
:102B48000101A751A811D8A4ACEF15F0AEEF15F00C
:102B5800B6EF15F0650E546E020E556E14EC4CF07F
:102B680011EF16F07C0E00018F6F010E906FD40EDE
:102B7800916FFD0E926FA7C193F0A8C194F0E6EC97
:102B880062F011EF16F0A6510201675D0101A46F12
:102B980002016851D8A068050101A56FA4C105F01C
:102BA800A5C106F0F7EC4FF005C0A7F106C0A8F1E3
:102BB800A4C119F0A5C11AF0A7C11BF0A8C11CF047
:102BC80061EC61F019C0A7F11AC0A8F1A7C1F8F02B
:102BD800A8C1F9F0B6EC35F011EF16F067C20DF0A8
:102BE80068C20EF02CEC5FF011EF16F002016E5186
:102BF80001015C6F5D6B5D51000AD8B406EF16F0F9
:102C0800F2EF15F05C51010AD8B47CEF15F0100A08
:102C1800D8B4C7EF15F0F2EF15F01200000E00015E
:102C2800DB6F08EC6DF00BEC6DF00001DA6F08EC6F
:102C38006DF00009D8B423EF16F025EF16F02AEF4F
:102C480018F0FEEF17F020EE0EF0D451D926D5512A
:102C5800DA22450EDF6E20EE0FF0D451D926D55179
:102C6800DA22020EDF6E20EE28F0D451D926D55193
:102C7800DA22DF5094EC62F00009D8B446EF16F07F
:102C880048EF16F060EF16F0D4C0A3F0D5C0A4F05A
:102C980012EC66F00001DB6FDB05D8A456EF16F0E6
:102CA80058EF16F06CEF16F0010E566E0EEC6DF044
:102CB80006EC6CF06CEF16F0000120EE48F0D451F1
:102CC800D926D551DA228F0EDF6E000E3FEF18F0AD
:102CD8000001DB05D8A473EF16F075EF16F0B2EF1C
:102CE80016F0DA51020DF80EF324D96E010EF42015
:102CF800DA6E10EE02F0DE50E126DD50E222E6CF79
:102D0800D6F0E5CFD7F002D895EF16F00500FA6EA9
:102D1800D651FD6ED751FE6EFF6AFA500EEC6DF07B
:102D280012000001DB6FDB05D8A49DEF16F09FEFC2
:102D380016F0A3EF16F014EC6DF03DEF18F002EC6E
:102D480067F0000120EE48F0D451D926D551DA2297
:102D5800850EDF6E000EDB6F3DEF18F020EE48F0B9
:102D6800D451D926D551DA22850EDF6EAEEF16F092
:102D780020EE0EF0D451D926D551DA22440EDF6E5A
:102D880020EE0FF0D451D926D551DA22020EDF6E8B
:102D9800000EDB6F20EE27F0D451D926D551DA2268
:102DA800DF5094EC62F00009D8B4DDEF16F0DFEFE5
:102DB80016F04AEF17F0000120EE27F0D451D9267B
:102DC800D551DA22DF50066E20EE46F0D451D926CE
:102DD800D551DA22DF50B2EC63F006C0D8F007C054
:102DE800D9F00001D851D911D8B4FDEF16F0FFEF92
:102DF80016F02BEF17F0DA51020DF80EF324D96E06
:102E0800010EF420DA6E10EE04F0DE50E126DD50FB
:102E1800E222E6CFD6F0E5CFD7F002D81FEF17F0C1
:102E28000500FA6ED651FD6ED751FE6EFF6AFA5054
:102E38000EEC6DF012000001DB6F20EE46F0D4516D
:102E4800D926D551DA22000EDE6E000EDD6EDB05C6
:102E5800D8A431EF17F033EF17F055EF17F0010E44
:102E68000101FE6FD4C053F0D5C054F007EC4FF009
:102E78000001DB6FDB05D8A444EF17F046EF17F02D
:102E880055EF17F014EC6DF055EF17F0000120EE38
:102E980048F0D451D926D551DA228F0EDF6E69EF6A
:102EA80016F00001DB05D8B45CEF17F05EEF17F001
:102EB8003DEF18F020EE48F0D451D926D551DA224A
:102EC800850EDF6E3DEF18F020EE0EF0D451D926B6
:102ED800D551DA22440EDF6EDA51020DF80EF324D2
:102EE800D96E010EF420DA6E10EE06F0DE50E126FF
:102EF800DD50E222E6CFD6F0E5CFD7F002D890EF4A
:102F080017F00500FA6ED651FD6ED751FE6EFF6AB6
:102F1800FA500EEC6DF012000001DB6F3DEF18F077
:102F280020EE0EF0D451D926D551DA22410EDF6EAB
:102F3800DA51020DF80EF324D96E010EF420DA6E80
:102F480010EE0AF0DE50E126DD50E222E6CFD6F0A0
:102F5800E5CFD7F002D8BCEF17F00500FA6ED651CE
:102F6800FD6ED751FE6EFF6AFA500EEC6DF012003E
:102F78000001DB6F3DEF18F020EE0EF0D451D9269A
:102F8800D551DA22420EDF6EDA51020DF80EF32423
:102F9800D96E010EF420DA6E10EE08F0DE50E1264C
:102FA800DD50E222E6CFD6F0E5CFD7F002D8E8EF41
:102FB80017F00500FA6ED651FD6ED751FE6EFF6A06
:102FC800FA500EEC6DF012000001DB6F3DEF18F0C7
:102FD80020EE48F0D451D926D551DA22850EDF6E7D
:102FE80020EE0FF0D451D926D551DA22020EDF6E29
:102FF800AEEF16F0000120EE0EF0D451D926D551CF
:10300800DA22DF50D66FD76BD751000AD8B40FEF4A
:1030180018F0ECEF17F0D651010AD8B427EF16F0E4
:10302800030AD8B494EF17F0010AD8B4BCEF16F02D
:10303800070AD8B4C0EF17F0010AD8B468EF17F040
:10304800400AD8B43DEF18F0ECEF17F0000E00017D
:10305800DB6F20EE0FF0D451D926D551DA22020EBB
:10306800DF6E20EE48F0D451D926D551DA22850EEC
:10307800DF6E0001DB511200000E416E26EF1AF0E0
:1030880020EE16F01F50D9262050DA2221C0DEFF8C
:1030980022C0DEFF23C0DEFF24C0DEFF25C0DEFF26
:1030A80026C0DEFF27C0DEFF28C0DEFF020E212477
:1030B800296E000E22202A6E000E23202B6E000E91
:1030C80024202C6E000E25202D6E000E26202E6E3C
:1030D800000E27202F6E000E2820306E20EE1EF0E6
:1030E8001F50D9262050DA2229C0DEFF2AC0DEFF71
:1030F8002BC0DEFF2CC0DEFF2DC0DEFF2EC0DEFFA2
:103108002FC0DEFF30C0DEFF2D0E2124296E000EF9
:1031180022202A6E000E23202B6E000E24202C6EF7
:10312800000E25202D6E000E26202E6E000E272064
:103138002F6E000E2820306E20EE26F01F50D92664
:103148002050DA2229C0DEFF2AC0DEFF2BC0DEFFB6
:103158002CC0DEFF2DC0DEFF2EC0DEFF2FC0DEFF3D
:1031680030C0DEFF1FC0D9FF20C0DAFFDF38030BF5
:103178000009D8A4C2EF18F0C4EF18F0F4EF18F063
:10318800F70E2124296E000E22202A6E000E23201D
:103198002B6E000E24202C6E000E25202D6E000EA6
:1031A80026202E6E000E27202F6E000E2820306E4F
:1031B80020EE2EF01F50D9262050DA2229C0DEFF3B
:1031C8002AC0DEFF2BC0DEFF2CC0DEFF2DC0DEFFD5
:1031D8002EC0DEFF2FC0DEFF30C0DEFF22EF19F069
:1031E800910E2124296E000E22202A6E000E232023
:1031F8002B6E000E24202C6E000E25202D6E000E46
:1032080026202E6E000E27202F6E000E2820306EEE
:1032180020EE2EF01F50D9262050DA2229C0DEFFDA
:103228002AC0DEFF2BC0DEFF2CC0DEFF2DC0DEFF74
:103238002EC0DEFF2FC0DEFF30C0DEFF20EE46F0DE
:103248001F50D9262050DA22010EDF6E010E416E82
:103258004DEF1AF020EE2EF01F50D9262050DA221A
:103268002150DE1819E12250DE1816E12350DE182D
:1032780013E12450DE1810E12550DE180DE1265028
:10328800DE180AE12750DE1807E12850DE18D8A416
:1032980050EF19F052EF19F05EEF19F020EE46F0FA
:1032A8001F50D9262050DA22030EDF6E000E416E21
:1032B8004DEF1AF020EE26F01F50D9262050DA22C2
:1032C8002150DE1819E12250DE1816E12350DE18CD
:1032D80013E12450DE1810E12550DE180DE12650C8
:1032E800DE180AE12750DE1807E12850DE18D8A4B6
:1032F80080EF19F082EF19F08CEF19F020EE46F00C
:103308001F50D9262050DA22020EDF6E5AEF19F02C
:1033180020EE1EF01F50D9262050DA222150DE1848
:1033280019E12250DE1816E12350DE1813E124506B
:10333800DE1810E12550DE180DE12650DE180AE1EE
:103348002750DE1807E12850DE18D8A4AEEF19F090
:10335800B0EF19F012EF1AF00101FD51020DF3CF91
:10336800FDF120EE1EF01F50D9262050DA22DECFC4
:1033780029F0DECF2AF0DECF2BF0DECF2CF0DECF27
:103388002DF0DECF2EF0DECF2FF0DECF30F0FD5166
:10339800020DF3CF31F0F4CF32F0000E32BEFF0E43
:1033A800336E346E356E366E376E386E2950312472
:1033B800396E2A5032203A6E2B5033203B6E2C50F7
:1033C80034203C6E2D5035203D6E2E5036203E6EFA
:1033D8002F5037203F6E30503820406E20EE1EF0C0
:1033E8001F50D9262050DA2239C0DEFF3AC0DEFF4E
:1033F8003BC0DEFF3CC0DEFF3DC0DEFF3EC0DEFF5F
:103408003FC0DEFF40C0DEFF20EE46F01F50D92649
:103418002050DA22010EDF6E2AEF19F04DEF1AF074
:103428001FC01DF020C01EF06EEC65F05AEF19F0B9
:1034380020EE46F01F50D9262050DA22040EDF6E07
:103448005AEF19F020EE46F01F50D9262050DA2204
:10345800DF50296E2A6A2A50000AD8B436EF1AF0CB
:103468004DEF1AF02950000AD8B444EF18F0010AB9
:10347800D8B42EEF19F0030AD8B414EF1AF0010AE1
:10348800D8B41CEF1AF0070AD8B44DEF1AF04DEF74
:103498001AF0415012001F6E57C005F058C006F0D0
:1034A800000E086E1F0E076E0BEC6AF0060E052460
:1034B800D96E030E0620DA6EDE501F5CD8A067EFC7
:1034C8001AF069EF1AF021EF1BF01F5083EC69F036
:1034D8001F50020D610EF324F66EFB0EF420F76EFA
:1034E800F86A000EF8220900F5CF0BF00A00F5CFB4
:1034F8000CF008EC69F057C005F058C006F0000E53
:10350800086E1F0E076E0BEC6AF0080E0524D96EC4
:10351800030E0620DA6E0F50DE180DE11050DE188B
:103528000AE11150DE1807E11250DE18D8A49FEF07
:103538001AF0A1EF1AF0C0EF1AF00FC00BF010C08C
:103548000CF011C00DF012C00EF017EC68F057C067
:1035580005F058C006F0000E086E1F0E076E0BEC43
:103568006AF0180E0524D96E030E0620DA6E010ED5
:10357800DF6E010E46EF1CF057C005F058C006F08C
:10358800000E086E1F0E076E0BEC6AF0080E05247D
:10359800D96E030E0620DA6EDECF13F0DECF14F0FC
:1035A800DECF15F0DECF16F0010E1324176E000ED5
:1035B8001420186E000E1520196E000E16201A6EB3
:1035C8000F5017180DE1105018180AE1115019186A
:1035D80007E112501A18D8A4F4EF1AF0F6EF1AF00F
:1035E80000EF1BF067EC6AF00009D8A4FEEF1AF0B0
:1035F80000EF1BF003EF1BF0000E46EF1CF057C066
:1036080005F058C006F0000E086E1F0E076E0BEC92
:103618006AF0180E0524D96E030E0620DA6E000E25
:10362800DF6E0FC00BF010C00CF011C00DF012C00F
:103638000EF017EC68F0BDEF1AF057C005F058C04F
:1036480006F0000E086E1F0E076E0BEC6AF0060EF1
:103658000524D96E030E0620DA6EDE501F5CD8B042
:1036680038EF1BF03AEF1BF000EF1BF057C005F0E6
:1036780058C006F0000E086E1F0E076E0BEC6AF0BD
:10368800080E0524D96E030E0620DA6E0F50DE18D8
:103698000DE11050DE180AE11150DE1807E1125052
:1036A800DE18D8A45AEF1BF05CEF1BF090EF1BF06C
:1036B8000FC00BF010C00CF011C00DF012C00EF0CE
:1036C80017EC68F057C005F058C006F0000E086EF9
:1036D8001F0E076E0BEC6AF0180E0524D96E030E48
:1036E8000620DA6E010EDF6E1F5083EC69F01F5062
:1036F800020D610EF324F66EFB0EF420F76EF86AE5
:10370800000EF8220900F5CF0BF00A00F5CF0CF0F7
:1037180008EC69F0BDEF1AF057C005F058C006F084
:10372800000E086E1F0E076E0BEC6AF0080E0524DB
:10373800D96E030E0620DA6E0F50DE5C1050DE588C
:103748001150DE581250DE58D8B0ADEF1BF0AFEF75
:103758001BF000EF1BF01F0E5702F3CF13F0F4CF4E
:1037680014F05802F3501426060E1324D96E030ED3
:103778001420DA6EDF50156E1550020D610EF32419
:10378800F66EFB0EF420F76EF86A000EF8220900B8
:10379800F5CF05F00A00F5CF06F01F50020D610EB7
:1037A800F324F66EFB0EF420F76EF86A000EF8228A
:1037B8000900F5CF07F00A00F5CF08F0F2EC5EF04B
:1037C80005C01BF006C01CF01D6A1E6A1B500F18AE
:1037D8000DE11C5010180AE11D50111807E11E5088
:1037E8001218D8A4FAEF1BF0FCEF1BF030EF1CF016
:1037F8000FC00BF010C00CF011C00DF012C00EF08D
:1038080017EC68F01F5083EC69F01F50020D610E31
:10381800F324F66EFB0EF420F76EF86A000EF82219
:103828000900F5CF0BF00A00F5CF0CF008EC69F0B1
:1038380057C005F058C006F0000E086E1F0E076E40
:103848000BEC6AF0180E0524D96E030E0620DA6E0A
:10385800000EDF6EBDEF1AF01F5083EC69F01F50A9
:10386800020D610EF324F66EFB0EF420F76EF86A73
:10387800000EF8220900F5CF0BF00A00F5CF0CF086
:1038880008EC69F01200000E0001846F000E836FCF
:10389800000E856F600E0F6E000E106E000E126E19
:1038A800000E116E000E146E200E136E94EC25F0AF
:1038B8003AC0D9FF3BC0DAFFDF500001806FDBEF71
:1038C8001DF020EE01F03A50D9263B50DA22DECF27
:1038D80083F0DDCF84F0600E0F6E000E106E030EC5
:1038E8003A24116E000E3B20126E83C013F084C080
:1038F80014F058EC58F0600E1B6E000E1C6EC9ECEC
:103908005BF020EE0AF03C50D9263D50DA221BC06D
:10391800DEFF1CC0DEFF1DC0DEFF1EC0DEFF010E85
:103928000001856F00EF1EF020EE01F03A50D92615
:103938003B50DA22DECF83F0DDCF84F0600E0F6ECD
:10394800000E106E030E3A24116E000E3B20126E0C
:1039580083C013F084C014F058EC58F0600E0F6E5A
:10396800000E106EB30E116EFC0E126EB30E0B6EBF
:10397800FC0E0C6E02EC64F00BC013F00CC014F0DB
:10398800F9EC41F00F501010D8A4CDEF1CF0CFEF98
:103998001CF0D7EF1CF0010E0101EC6F010E0001C5
:1039A800856F00EF1EF0600E0F6E000E106ED50EC4
:1039B800116EFC0E126ED50E0B6EFC0E0C6E02EC28
:1039C80064F00BC013F00CC014F0F9EC41F00F5088
:1039D8001010D8A4F2EF1CF0F4EF1CF0FCEF1CF070
:1039E800010E0101EB6F010E0001856F00EF1EF063
:1039F800600E106E000E116ED1EC6BF010C081F0ED
:103A080011C082F00001812908E18229D8B40FEFA2
:103A18001DF011EF1DF030EF1DF020EE42F03C508C
:103A2800D9263D50DA22DF503E6E3E503C243F6E90
:103A3800000E3D20406E1B0E3F24D96E000E402024
:103A4800DA6E81C0DFFF20EE42F03C50D9263D50AF
:103A5800DA22DF2A93EF1CF020EE48F03C50D926FA
:103A68003D50DA22850EDF6E000E0001856F00EFF3
:103A78001EF020EE03F03A50D9263B50DA2210EE21
:103A880027F03C50E1263D50E222DFCFE7FF93EFDD
:103A98001CF020EE01F03A50D9263B50DA22DECF56
:103AA80083F0DDCF84F0600E0F6E000E106E030EF3
:103AB8003A24116E000E3B20126E83C013F084C0AE
:103AC80014F058EC58F0600E0B6E000E0C6E73EC90
:103AD80067F020EE43F03C50D9263D50DA22DF2A29
:103AE80093EF1CF020EE03F03A50D9263B50DA222F
:103AF80010EE28F03C50E1263D50E222DFCFE7FFF0
:103B080093EF1CF00101EC51D8B48DEF1DF08FEF4D
:103B18001DF0C7EF1DF020EE01F03A50D9263B50BA
:103B2800DA22DECF83F0DDCF84F020EE0AF03C50BD
:103B3800D9263D50DA22DECF20F0DECF21F0DECFCD
:103B480022F0DECF23F0030E3A24246E000E3B2031
:103B5800256E83C026F084C027F0B5EC44F0000140
:103B6800856F8551D8A4BBEF1DF0BDEF1DF000EFA8
:103B78001EF020EE48F03C50D9263D50DA22820E45
:103B8800DF6E00EF1EF020EE48F03C50D9263D5085
:103B9800DA22820EDF6E38EF1DF020EE48F03C503E
:103BA800D9263D50DA22820EDF6E38EF1DF08051A3
:103BB8003E6E3F6A3F50000AD8B4E5EF1DF0D1EFE2
:103BC8001DF03E50030AD8B465EF1CF0080AD8B4BB
:103BD80098EF1CF0070AD8B43DEF1DF0030AD8B4DB
:103BE8004DEF1DF01E0AD8B476EF1DF0060AD8B4C2
:103BF80086EF1DF0D1EF1DF085511200000E4B6EBF
:103C0800F00E0101BF17000E0501A66F000E4A6EE7
:103C180020EE42F04150D9264250DA22000EDF6EE3
:103C280020EE43F04150D9264250DA22000EDF6ED2
:103C380020EE27F04150D9264250DA22000EDF6EDE
:103C480020EE28F04150D9264250DA22000EDF6ECD
:103C5800290E41240F6E000E4220106E000E126EC7
:103C6800000E116E000E146E190E136E94EC25F0F2
:103C78001B0E41240F6E000E4220106E000E126EB5
:103C8800000E116E000E146E0A0E136E94EC25F0E1
:103C9800A90E0F6E050E106E000E126E000E116E3C
:103CA800000E146E200E136E94EC25F020EE45F0F5
:103CB8004150D9264250DA22000EDF6E20EE46F03F
:103CC8004150D9264250DA22000EDE6E000EDD6E1B
:103CD800E9EC6CF0000E0101EC6F000EEB6F000ECA
:103CE800E96FB0EF1FF0DCEC6BF04C6E4306D8A028
:103CF80044064C28D8B483EF1EF085EF1EF090EFF1
:103D08001FF0A90E0F6E050E106E000E126E000E3B
:103D1800116E000E146E200E136E94EC25F04CC03C
:103D280045F0453A0F0E45160F0E45160101BF51D5
:103D38004518F00B4518BF6FBF510F0B0501A6279B
:103D48004CC045F00F0E4516453A0101BF514518C4
:103D58000F0B4518BF6FBF390F0B0501A76F010186
:103D6800BF510F0B0D0AD8A4BCEF1EF0BEEF1EF01A
:103D7800CBEF1EF0DCEC6BF00101C06FC051050108
:103D8800A625A66F4306D8A04406E4EF1EF0BF514F
:103D98000F0B0E0AD8A4D3EF1EF0D5EF1EF0E4EFF8
:103DA8001EF01DEC69F006C0C0F107C0C1F10101A9
:103DB800C0510501A625A66FFE0E4326FF0E44221C
:103DC8000101BF390F0B0D0AD8A4EDEF1EF0EFEF7C
:103DD8001EF01AEF1FF0DCEC6BF00101C26FA90EA8
:103DE800066E050E076EBF390F0B456E4550C2258E
:103DF800086E096A09360CEC5DF00501A75101014E
:103E0800C2254A6E4AC0A7F5BF390F0B456E466AF0
:103E1800C2514526000E4622010E4526000E4622B6
:103E28004550435E4650445A70EF1FF0BF390F0BA0
:103E38000E0AD8A422EF1FF024EF1FF05CEF1FF04A
:103E48001DEC69F006C0C2F107C0C3F1A90E066EE9
:103E5800050E076E0101BF390F0B456E4550C2258F
:103E6800086E000EC321096E0CEC5DF00101C25111
:103E78000501A725486E0101C3510501A821496E16
:103E880048C0A7F549C0A8F50101BF390F0B456E19
:103E98004550C225466E000EC321476E020E4626C7
:103EA800000E47224650435E4750445A70EF1FF0B9
:103EB800A90E066E050E076EBF390F0B456E4550ED
:103EC800086E096A0CEC5DF00101BF390F0B456EF5
:103ED8004550435E000E445AA60E3A6E050E3B6EE0
:103EE80041C03CF042C03DF047EC1CF04B6E4B50DB
:103EF800D8A481EF1FF083EF1FF087EF1FF0000EAB
:103F08004B6EB9EF1FF020EE44F04150D9264250D5
:103F1800DA22DF2AB0EF1FF04C28D8A496EF1FF062
:103F280098EF1FF0B0EF1FF020EE45F04150D92672
:103F38004250DA22010EDF6E20EE46F04150D926BB
:103F48004250DA2243C0DEFF44C0DDFF000E446E5B
:103F5800000E436E010E4B6E43504410D8A4B7EFC9
:103F68001FF0B9EF1FF077EF1EF04B50120057C04B
:103F780005F058C006F0000E086E1F0E076E0BEC19
:103F88006AF00E0E0524D96E030E0620DA6E000EB6
:103F9800DE6E000EDD6E57C005F058C006F0000E4C
:103FA800086E1F0E076E0BEC6AF0190E0524D96E09
:103FB800030E0620DA6E000EDE6E000EDD6E57C0B0
:103FC80005F058C006F0000E086E1F0E076E0BECC9
:103FD8006AF00C0E0524D96E030E0620DA6E2B50FB
:103FE800DE262C50DD2257C005F058C006F0000E22
:103FF800086E1F0E076E0BEC6AF0040E0524D96ECE
:10400800030E0620DA6E57C005F058C006F0000E01
:10401800086E1F0E076E0BEC6AF00C0E0524E16E9D
:10402800030E0620E26EDE50E65CDE50E658D8A0AD
:1040380020EF20F022EF20F011EF21F057C005F01B
:1040480058C006F0000E086E1F0E076E0BEC6AF0E3
:10405800040E0524D96E030E0620DA6EDECF2DF08D
:10406800DDCF2EF057C005F058C006F0000E086EE0
:104078001F0E076E0BEC6AF00C0E0524D96E030EAA
:104088000620DA6EDECF2FF0DDCF30F02D502F5E18
:104098002E50305A57C005F058C006F0000E086E72
:1040A8001F0E076E0BEC6AF0190E0524D96E030E6D
:1040B8000620DA6E2FC0DEFF30C0DDFF57C005F0E6
:1040C80058C006F0000E086E1F0E076E0BEC6AF063
:1040D800190E0524D96E030E0620DA6EDECF2DF0F8
:1040E800DDCF2EF02BC02FF02CC030F02D502F5EDE
:1040F8002E50305A57C005F058C006F0000E086E12
:104108001F0E076E0BEC6AF00E0E0524D96E030E17
:104118000620DA6E2FC0DEFF30C0DDFF29C023F095
:104128002AC024F057C005F058C006F0000E086EEB
:104138001F0E076E0BEC6AF00E0E0524D96E030EE7
:104148000620DA6EDECF25F0DDCF26F06DEC60F0CC
:1041580057C005F058C006F0000E086E1F0E076E17
:104168000BEC6AF00C0E0524D96E030E0620DA6EED
:10417800000EDE6E000EDD6E890E056E020E066EF6
:1041880079EC5AF005C02DF006C02EF007C02FF0CC
:1041980008C030F009C031F00AC032F00BC033F06B
:1041A8000CC034F0020E2D24356E000E2E20366E13
:1041B800000E2F20376E000E3020386E000E312092
:1041C800396E000E32203A6E000E33203B6E000E20
:1041D80034203C6E57C005F058C006F0000E086E3B
:1041E8001F0E076E0BEC6AF0100E0524D96E030E35
:1041F8000620DA6E35C0DEFF36C0DEFF37C0DEFFD0
:1042080038C0DEFF39C0DEFF3AC0DEFF3BC0DEFF4C
:104218003CC0DEFF010E54EF21F057C005F058C036
:1042280006F0000E086E1F0E076E0BEC6AF00E0EFD
:104238000524D96E030E0620DA6E2BC0DEFF2CC0D3
:10424800DDFF29C023F02AC024F057C005F058C06C
:1042580006F0000E086E1F0E076E0BEC6AF00E0ECD
:104268000524D96E030E0620DA6EDECF25F0DDCFE9
:1042780026F06DEC60F029C00FF02AC010F0000E97
:10428800126E000E116E29C00BF02AC00CF002EC61
:1042980064F00BC013F00CC014F094EC25F0000E81
:1042A800120024C03CF025C03DF026C03EF027C0D7
:1042B8003FF028C040F029C041F02AC042F02BC08E
:1042C80043F043BE6AEF21F06DEF21F0010E6EEF6F
:1042D80021F0000E3A6E3B6A3A503B10D8B477EFA3
:1042E80021F079EF21F089EF21F0431E421E411E93
:1042F800401E3F1E3E1E3D1E3C6C000E3D223E22CF
:104308003F2240224122422243220101CBBF8FEFAC
:1043180021F091EF21F092EF21F0CC93CBBF9FEFEA
:1043280021F0CB5106E1CA05D8B09DEF21F09FEFEF
:1043380021F0A5EF21F0000E376E010E366EA9EFC1
:1043480021F0CAC136F0CBC137F0C8C138F0C9C1B5
:1043580039F03A503B10D8A4B4EF21F0B6EF21F071
:10436800BDEF21F0CCA5BBEF21F0BDEF21F0C0EFF0
:1043780021F03806D8A03906000E456E1F0E446E8F
:10438800000E0401C16F45EF22F04406D8A045068F
:10439800A20E4424D96E040E4520DA6E3CC005F006
:1043A8003DC006F03EC007F03FC008F040C009F02D
:1043B80041C00AF042C00BF043C00CF00A0E0D6E6B
:1043C800000E0E6E000E0F6E000E106E000E116EB7
:1043D800000E126E000E136E000E146EACEC42F05E
:1043E80005C02CF006C02DF007C02EF008C02FF035
:1043F80009C030F00AC031F00BC032F00CC033F005
:104408002CC017F02EC018F0F2EC65F01750300FE2
:10441800DF6E3606D8A037063806D8A039063CC065
:1044280005F03DC006F03EC007F03FC008F040C0B0
:1044380009F041C00AF042C00BF043C00CF00A0E6C
:104448000D6E000E0E6E000E0F6E000E106E000E3A
:10445800116E000E126E000E136E000E146E4BECF1
:104468003EF005C03CF006C03DF007C03EF008C075
:104478003FF009C040F00AC041F00BC042F00CC048
:1044880043F045BE50EF22F0455008E14404D8A05F
:1044980050EF22F052EF22F083EF22F03C503D1013
:1044A8003E103F104010411042104310D8A45FEF57
:1044B80022F061EF22F0C9EF21F037BE6EEF22F053
:1044C800375006E13604D8B06CEF22F06EEF22F0D8
:1044D800C9EF21F039BE79EF22F0395008E13804EC
:1044E800D8A079EF22F07BEF22F083EF22F00101D0
:1044F800CCB381EF22F083EF22F0C9EF21F03A50DC
:104508003B10D8A48AEF22F08CEF22F094EF22F02F
:104518000101CCA592EF22F094EF22F0B2EF22F045
:104528004406D8A045063A503B10D8A49EEF22F086
:10453800A0EF22F0A6EF22F0000E356E2B0E346E9F
:10454800AAEF22F0000E356E2D0E346EA20E442412
:10455800D96E040E4520DA6E34C0DFFF22C017F092
:1045680023C018F0A20E4424196E040E45201A6EBA
:1045780038C01BF039C01CF0BAEC54F017C022F058
:1045880018C023F012000101CBBFCDEF22F0CFEF0E
:1045980022F0D0EF22F0CC93CBBFDDEF22F0CB514D
:1045A80006E1CA05D8B0DBEF22F0DDEF22F0E3EF39
:1045B80022F0000E3A6E010E396EE7EF22F0CAC102
:1045C80039F0CBC13AF0C8C13BF0C9C13CF0CCA925
:1045D800F0EF22F0F2EF22F0F6EF22F0FE0E3B268B
:1045E800FF0E3C2224C03DF025C03EF026C03FF01F
:1045F80027C040F028C041F029C042F02AC043F04B
:104608002BC044F0000E466E1F0E456E000E0401CE
:10461800C16FC2EF23F04506D8A046060F0E3D1421
:10462800476E486A48BE22EF23F0485009E10A0E57
:10463800475CD8A022EF23F024EF23F02CEF23F0DF
:10464800570E4724476E000E4820486E32EF23F07D
:10465800300E4724476E000E4820486EBF0E2D6E60
:10466800FF0E2E6E2C502F6E306A2D502F262E5096
:10467800302230500AE11A0E2F5CD8A046EF23F002
:1046880049EF23F0010E4AEF23F0000E356E366A2B
:1046980035503610D8B453EF23F055EF23F085EF9B
:1046A80023F09F0E2D6EFF0E2E6E200E47102F6EDC
:1046B800000E4810306E2D502F262E5030223050CC
:1046C8000AE11A0E2F5CD8A06CEF23F06FEF23F0ED
:1046D800010E70EF23F0000E376E386A375038102D
:1046E800D8B479EF23F07BEF23F085EF23F047C0B0
:1046F8000BF048C00CF032EC61F00BC047F00CC076
:1047080048F0A20E4524D96E040E4620DA6E47C042
:10471800DFFF3906D8A03A063B06D8A03C063DC0C4
:104728002DF03EC02EF03FC02FF040C030F041C009
:1047380031F042C032F043C033F044C034F0050ECB
:10474800AFEF23F0D8903432333232323132303254
:104758002F322E322D32E82EA6EF23F02DC03DF059
:104768002EC03EF02FC03FF030C040F031C041F0C5
:1047780032C042F033C043F034C044F046BECEEFFE
:1047880023F0465009E1020E455CD8A0CEEF23F095
:10479800D0EF23F001EF24F03D503E103F104010C1
:1047A8004110421043104410D8A4DDEF23F0DFEF8E
:1047B80023F00FEF23F03ABEECEF23F03A5006E176
:1047C8003904D8B0EAEF23F0ECEF23F00FEF23F031
:1047D8003CBEF7EF23F03C5008E13B04D8A0F7EFCC
:1047E80023F0F9EF23F001EF24F00101CCB3FFEF40
:1047F80023F001EF24F00FEF23F00101CCA907EF1C
:1048080024F009EF24F01FEF24F04506D8A046064F
:10481800A20E4524D96E040E4620DA6E2CC0DFFFA6
:104828004506D8A04606A20E4524D96E040E462099
:10483800DA6E300EDF6E22C017F023C018F0A20E19
:104848004524196E040E46201A6E3BC01BF03CC06E
:104858001CF0BAEC54F017C022F018C023F0120074
:10486800010E0001626F000E616F000E646F080E8A
:10487800636F060E656F040E666F010E686F000E9B
:10488800676F690E056E000E066EA30E076E030EA7
:10489800086E000E0A6E060E096EDAEC63F0FF0E63
:1048A800020100152D6E000E01152E6E000E021568
:1048B8002F6E000E0315306E2DC030F02F6A2E6A51
:1048C8002D6A000E0015316EFF0E0115326E000EB6
:1048D8000215336E000E0315346E33C034F032C047
:1048E80033F031C032F0316A00C235F001C236F01F
:1048F80002C237F003C238F036C035F037C036F0A0
:1049080038C037F0386A000E3514396EFF0E361489
:104918003A6E000E37143B6E000E38143C6E00C21F
:104928003DF001C23EF002C23FF003C240F0190E52
:10493800A3EF24F0D89040323F323E323D32E82E89
:104948009EEF24F0FF0E3D14416E000E3E14426EA1
:10495800000E3F14436E000E4014446E395041104F
:10496800456E3A504210466E3B504310476E3C50DD
:104978004410486E31504510496E325046104A6E08
:10498800335047104B6E345048104C6E2D50491020
:1049980000016F6F2E504A10706F2F504B10716FBF
:1049A80030504C10726FFF0E29142D6E000E2A1411
:1049B8002E6E000E2B142F6E000E2C14306E2DC090
:1049C80030F02F6A2E6A2D6A000E2914316EFF0E00
:1049D8002A14326E000E2B14336E000E2C14346E13
:1049E80033C034F032C033F031C032F0316A29C0FC
:1049F80035F02AC036F02BC037F02CC038F036C05E
:104A080035F037C036F038C037F0386A000E351444
:104A1800396EFF0E36143A6E000E37143B6E000ED8
:104A280038143C6E29C03DF02AC03EF02BC03FF040
:104A38002CC040F0190E26EF25F0D89040323F32B6
:104A48003E323D32E82E21EF25F0FF0E3D14416E37
:104A5800000E3E14426E000E3F14436E000E4014CA
:104A6800446E39504110456E3A504210466E3B50E4
:104A78004310476E3C504410486E31504510496E03
:104A8800325046104A6E335047104B6E345048101F
:104A98004C6E2D504910796F2E504A107A6F2F5056
:104AA8004B107B6F30504C107C6F000E736F000EF4
:104AB800746F000E756F000E766F000E776F000E24
:104AC800786FCF0E186EFC0E196E080E1B6E060E50
:104AD8001A6E88EC29F00001606F6005D8A477EFA2
:104AE80025F079EF25F092EF25F0610E236E000E88
:104AF800246E000E266E1C0E256E6DEC60F08EEC9A
:104B08004EF00001606F6005D8A48DEF25F08FEF9F
:104B180025F092EF25F0050E93EF25F06051120075
:104B28000FC01BF010C01CF013501410D8A49FEF36
:104B380025F0A1EF25F0A3EF25F0E7EF26F01BC045
:104B4800F6FF1CC0F7FF000EF86E0E0EF76404D0D7
:104B580011C0F5FF0C0006D0F6CFE9FFF7CFEAFF4A
:104B680011C0EFFFFF0E156EFF0E166E13501B24BB
:104B7800176E14501C20186E155017261650182240
:104B880017C0F6FF18C0F7FF000EF86E0E0EF76498
:104B980004D011C0F5FF0C0006D0F6CFE9FFF7CF1F
:104BA800EAFF11C0EFFF145007E1030E135CD8B001
:104BB800E0EF25F0E2EF25F0E4EF25F0E7EF26F04F
:104BC800010E1B24156E000E1C20166E15C0F6FF74
:104BD80016C0F7FF000EF86E0E0EF76404D011C071
:104BE800F5FF0C0006D0F6CFE9FFF7CFEAFF11C0BA
:104BF800EFFF020E1B24156E000E1C20166E15C04A
:104C0800F6FF16C0F7FF000EF86E0E0EF76404D01C
:104C180011C0F5FF0C0006D0F6CFE9FFF7CFEAFF89
:104C280011C0EFFFFE0E156EFF0E166E13501B24FB
:104C3800176E14501C20186E15501726165018227F
:104C480017C0F6FF18C0F7FF000EF86E0E0EF764D7
:104C580004D011C0F5FF0C0006D0F6CFE9FFF7CF5E
:104C6800EAFF11C0EFFFFD0E156EFF0E166E135012
:104C78001B24176E14501C20186E1550172616503A
:104C8800182217C0F6FF18C0F7FF000EF86E0E0EB8
:104C9800F76404D011C0F5FF0C0006D0F6CFE9FF89
:104CA800F7CFEAFF11C0EFFF145007E1070E135CBE
:104CB800D8B061EF26F063EF26F065EF26F0E7EF56
:104CC80026F0030E1B24156E000E1C20166E15C050
:104CD800F6FF16C0F7FF000EF86E0E0EF76404D04C
:104CE80011C0F5FF0C0006D0F6CFE9FFF7CFEAFFB9
:104CF80011C0EFFFFC0E156EFF0E166E13501B242D
:104D0800176E14501C20186E1550172616501822AE
:104D180017C0F6FF18C0F7FF000EF86E0E0EF76406
:104D280004D011C0F5FF0C0006D0F6CFE9FFF7CF8D
:104D3800EAFF11C0EFFF145007E1090E135CD8B069
:104D4800A8EF26F0AAEF26F0ACEF26F0E7EF26F062
:104D58001BC015F01CC016F0151E161E154A162A83
:104D6800030E1514196E1A6A19501B261A501C22A4
:104D78001950135E1A50145AFC0E1316FF0E14160F
:104D8800DEEF26F01BC0F6FF1CC0F7FF000EF86E22
:104D98000E0EF76404D011C0F5FF0C0006D0F6CF54
:104DA800E9FFF7CFEAFF11C0EFFF1306D8A01406FA
:104DB8001B4A1C2A13501410D8A4E5EF26F0E7EF7D
:104DC80026F0C6EF26F01200000E00018B6F0201DC
:104DD8000051011102110311D8A4F5EF26F0F7EFE5
:104DE80026F000EF27F0110E5118D8A4FEEF26F098
:104DF80000EF27F0D3EF27F000050BE17F0E031932
:104E080001110211D8B40BEF27F00DEF27F0D3EF03
:104E180027F04D280CE14E280AE14F2808E15028D8
:104E2800D8B419EF27F01BEF27F0D7EF27F0000EC3
:104E38004D1000017D6F000E4E107E6F000E4F105A
:104E48007F6FFF0E5010806F7D290CE17E290AE1EB
:104E58007F2908E18029D8B434EF27F036EF27F00E
:104E6800D7EF27F0000E4D107D6F000E4E107E6FAD
:104E7800FF0E4F107F6FFF0E5010806F7D290CE1E1
:104E88007E290AE17F2908E18029D8B44EEF27F06E
:104E980050EF27F0D7EF27F0000E4D107D6FFF0E73
:104EA8004E107E6FFF0E4F107F6FFF0E5010806FF9
:104EB8007D290CE17E290AE17F2908E18029D8B4FF
:104EC80068EF27F06AEF27F0D7EF27F04D5002017F
:104ED800001900017D6F4E500201011900017E6F1B
:104EE8004F500201021900017F6F5050020103194F
:104EF8000001806F02010C5100017D15816F0201D4
:104F08000D5100017E15826F02010E5100017F15BF
:104F1800836F02010F5100018015846F8151821146
:104F280083118411D8A49BEF27F09DEF27F0A7EFFA
:104F380027F04DC085F04EC086F04FC087F050C0B6
:104F480088F0AFEF27F010C285F011C286F012C2C8
:104F580087F013C288F085C005F086C006F087C0C8
:104F680007F088C008F099EC5FF005C089F006C02A
:104F78008AF0000189518A11D8A4C5EF27F0C7EF3C
:104F880027F0DCEF27F085C029F086C02AF087C01B
:104F98002BF088C02CF034EC24F000018B6F00015A
:104FA8008B513AEF28F0CF0E0001896FFC0E8A6F03
:104FB80089C018F08AC019F0080E1B6E000E1A6E10
:104FC80088EC29F000018B6F8B05D8A4EEEF27F051
:104FD800F0EF27F0D3EF27F0450E076E000E066EB0
:104FE8008AEC6AF0000E076E000E066E8AEC6AF014
:104FF800000E066E400E076E550E086EAA0E096E5C
:10500800C4EC68F0400E4DEC6BF051504DEC6BF079
:10501800000E076E000E066E8AEC6AF000C206F0FB
:1050280001C207F002C208F003C209F0C4EC68F03C
:105038004DC006F04EC007F04FC008F050C009F050
:10504800C4EC68F000C271F201C272F202C273F2DB
:1050580003C274F24DC075F24EC076F24FC077F2BB
:1050680050C078F251C06EF2D3EF27F01200000E54
:10507800056E000E066E79EC5AF005C096F006C073
:1050880097F007C098F008C099F009C09AF00AC0D4
:105098009BF00BC09CF00CC09DF003013E51000139
:1050A800965D03013F5100019759030140510001EA
:1050B80098590301415100019959030142510001D6
:1050C8009A590301435100019B59030144510001BE
:1050D8009C599D51800A946F03014551800A000133
:1050E8009459D8A07AEF28F07CEF28F05FEF29F0E8
:1050F80040EF29F0040E0301CD6F000ECE6F000EB5
:10510800CF6F000ED06F020ED16F000ED26F000E5F
:10511800D36F000ED46F010E0101CF6F5FEF29F03E
:1051280032EC69F00009D8A49CEF28F09EEF28F033
:10513800AFEF28F0020E0301CD6F000ECE6F000E08
:10514800CF6F000ED06F040ED16F000ED26F000E1D
:10515800D36F000ED46F020E0301CD19CE11CF11FB
:10516800D011D8A4BAEF28F0BCEF28F0CAEF28F085
:10517800000E0201006F000E016F000E026F000E9C
:10518800036F030E0101CF6FCFEF28F0CD07000E9C
:10519800CE5BCF5BD05B020E0301D119D211D311C4
:1051A800D411D8A4DAEF28F0DCEF28F0E1EF28F0EA
:1051B800020E0101CF6F5FEF29F0D107000ED25B1D
:1051C800D35BD45B5FEF29F00AEC5CF00009D8B43C
:1051D800F0EF28F0F2EF28F05FEF29F00A0E030154
:1051E800D16F000ED26F000ED36F000ED46FFF0E7A
:1051F800CD6FFF0ECE6FFF0ECF6F7F0ED06F000EFC
:105208000101CE6F010ECF6F5FEF29F032EC69F02C
:105218000009D8B412EF29F014EF29F05FEF29F054
:10522800EDEC6CF00009D8B41CEF29F01EEF29F062
:105238005FEF29F00F0E0301CD6F000ECE6F000E49
:10524800CF6F000ED06F030E0101CE19D8A42FEF37
:1052580029F031EF29F035EF29F0020ECE6F37EF44
:1052680029F0010ECE6F010ECF6F5FEF29F0000E0F
:105278000101CF6F5FEF29F00101CF510001946F59
:10528800956B9551000AD8B44CEF29F03BEF29F003
:105298009451000AD8B47EEF28F0010AD8B494EFEC
:1052A80028F0030AD8B4E8EF28F0010AD8B40AEFC6
:1052B80029F03BEF29F0010E0001962503013E6F0E
:1052C800000E0001972103013F6F000E0001982195
:1052D8000301406F000E000199210301416F000E88
:1052E80000019A210301426F000E00019B21030176
:1052F800436F000E00019C210301446F000E000162
:105308009D210301456F1200020E31EC66F00B0E71
:10531800085C1A0E0958D8A094EF29F096EF29F0E6
:10532800B7EF29F0FF0EBBEC6AF01C6E1CA69FEFCE
:1053380029F0A1EF29F0A4EF29F0040ECEEF2AF00E
:105348008DEC30F0020E31EC66F00B0E085C1A0E94
:105358000958D8A0B2EF29F0B4EF29F0B7EF29F037
:10536800030ECEEF2AF0B5EC36F005C01EF006C0ED
:105378001FF01E501F10D8A4C4EF29F0C6EF29F063
:10538800C8EF29F0B4EF29F01EC0D9FF1FC0DAFF1B
:10539800DECF1CF0DDCF1DF0010E1C12000E1D1219
:1053A8001EC0D9FF1FC0DAFF1CC0DEFF1DC0DDFF15
:1053B80020EE02F01E50D9261F50DA22DECF08F068
:1053C800DDCF09F0020EC7EC67F043EC6CF0000E7D
:1053D80002015A6F000E596F85927A0E3FEC6BF0FE
:1053E8000101DE513FEC6BF018C0F6FF19C0F7FF62
:1053F800000EF86E0E0EF76403D00800F55005D0C5
:10540800F6CFE9FFF7CFEAFFEF503FEC6BF0010E64
:1054180018241C6E000E19201D6E1CC0F6FF1DC03E
:10542800F7FF000EF86E0E0EF76403D00800F55073
:1054380005D0F6CFE9FFF7CFEAFFEF503FEC6BF06E
:10544800020E18241C6E000E19201D6E1CC0F6FFDB
:105458001DC0F7FF000EF86E0E0EF76403D00800AB
:10546800F55005D0F6CFE9FFF7CFEAFFEF503FEC54
:105478006BF0030E18241C6E000E19201D6E1CC044
:10548800F6FF1DC0F7FF000EF86E0E0EF76403D08E
:105498000800F55005D0F6CFE9FFF7CFEAFFEF5047
:1054A8003FEC6BF0040E18241C6E000E19201D6EC4
:1054B8001CC0F6FF1DC0F7FF000EF86E0E0EF76455
:1054C80003D00800F55005D0F6CFE9FFF7CFEAFF83
:1054D800EF503FEC6BF0050E18241C6E000E1920DF
:1054E8001D6E1CC0F6FF1DC0F7FF000EF86E0E0EF5
:1054F800F76403D00800F55005D0F6CFE9FFF7CFE1
:10550800EAFFEF503FEC6BF0D6C1D9FFD7C1DAFF05
:10551800DF503FEC6BF0010120EE01F0D651D926A7
:10552800D751DA22DF503FEC6BF0010120EE02F098
:10553800D651D926D751DA22DF503FEC6BF0010162
:1055480020EE03F0D651D926D751DA22DF503FECAE
:105558006BF0010120EE04F0D651D926D751DA229A
:10556800DF503FEC6BF0010120EE05F0D651D92653
:10557800D751DA22DF503FEC6BF01B503FEC6BF059
:105588001A503FEC6BF085820F0E02015927000E6E
:105598005A23010E1200000E126E000E136E000E3A
:1055A800146E000E156EB5EF2BF0DCEC6BF0106E80
:1055B8001050126E136A146A156A12C016F013C0DE
:1055C80017F014C018F015C019F019BEF8EF2AF03A
:1055D80019501810171006E11604D8B0F6EF2AF083
:1055E800F8EF2AF0FAEF2AF0D1EF2BF0DCEC6BF0B1
:1055F8000EC0D9FF0FC0DAFFDF6E0E4A0F2AFF0E6A
:105608001626FF0E1722FF0E1822FF0E1922E9EFA9
:105618002AF01DEC69F006C012F007C013F0146AF6
:10562800156A12C016F013C017F014C018F015C090
:1056380019F019BE2CEF2BF019501810171006E1AD
:105648001604D8B02AEF2BF02CEF2BF02EEF2BF00E
:10565800D1EF2BF0DCEC6BF00EC0D9FF0FC0DAFFF6
:10566800DF6E0E4A0F2AFF0E1626FF0E1722FF0EB8
:105678001822FF0E19221DEF2BF08CEC66F006C0E5
:1056880012F007C013F008C014F009C015F012C0DA
:1056980016F013C017F014C018F015C019F019BE91
:1056A80062EF2BF019501810171006E11604D8B045
:1056B80060EF2BF062EF2BF064EF2BF0D1EF2BF0C3
:1056C800DCEC6BF00EC0D9FF0FC0DAFFDF6E0E4ABC
:1056D8000F2AFF0E1626FF0E1722FF0E1822FF0EA6
:1056E800192253EF2BF00101F15107E1180EF05D7B
:1056F800D8B081EF2BF083EF2BF0D1EF2BF0F0C176
:1057080012F0F1C113F0146A156A12C016F013C032
:1057180017F014C018F015C019F019BEA0EF2BF03F
:1057280019501810171006E11604D8B09EEF2BF088
:10573800A0EF2BF0A2EF2BF0D1EF2BF0DCEC6BF00D
:105748000EC0D9FF0FC0DAFFDF6E0E4A0F2AFF0E18
:105758001626FF0E1722FF0E1822FF0E192291EFB0
:105768002BF021EEF0F0DECF10F0DDCF11F011506C
:10577800000AD8B4C2EF2BF077EF2BF01050180ABC
:10578800D8B4D9EF2AF0010AD8B40DEF2BF0030AE8
:10579800D8B441EF2BF077EF2BF00101F15107E17D
:1057A800180EF05DD8B0DBEF2BF0DDEF2BF0DFEF5C
:1057B8002BF013EF2CF0180EF019F111D8A4E7EF25
:1057C8002BF0E9EF2BF0F1EF2BF0010E1226000E73
:1057D80013221422152213EF2CF0190EF019F111CF
:1057E800D8A4F9EF2BF0FBEF2BF003EF2CF0020E0F
:1057F8001226000E13221422152213EF2CF01A0E73
:10580800F019F111D8A40BEF2CF00DEF2CF013EFD9
:105818002CF0040E1226000E132214221522125008
:105828001200000E216E000E226E000E236E000E76
:10583800246E000E1B6E000E1A6E25EF2CF0114A16
:10584800122A010E206E11C0F6FF12C0F7FF000EDB
:10585800F86E0E0EF76403D00800F55005D0F6CFA9
:10586800E9FFF7CFEAFFEF50200AD8B43EEF2CF05B
:1058780040EF2CF068EF2CF0F70E156EFF0E166E49
:1058880011C0F6FF12C0F7FF000EF86E0E0EF76497
:1058980003D00800F55005D0F6CFE9FFF7CFEAFFAF
:1058A800EF50176E186A1550172616501822185000
:1058B80009E1050E175CD8A064EF2CF066EF2CF018
:1058C80068EF2CF0000E206E20C01CF01D6A1C50E2
:1058D8001D10D8A472EF2CF074EF2CF023EF2CF0ED
:1058E8007EEF2CF0000E1B6E010E1A6E114A122A62
:1058F800DDEF2CF011C0F6FF12C0F7FF000EF86EB6
:105908000E0EF76403D00800F55005D0F6CFE9FF76
:10591800F7CFEAFFEF50156E166A1650000AD8B492
:1059280098EF2CF0DDEF2CF015502B0AD8B47AEF55
:105938002CF0060AD8B476EF2CF0DDEF2CF011C06D
:10594800F6FF12C0F7FF000EF86E0E0EF76403D0D4
:105958000800F55005D0F6CFE9FFF7CFEAFFEF5082
:10596800156ED00E1524166E176AFF0E1722186AC8
:10597800196A21C005F022C006F023C007F024C030
:1059880008F00A0E096E000E0A6E000E0B6E000E6D
:105998000C6ECFEC5FF01650055C216E1750065860
:1059A800226E18500758236E19500858246E7AEF43
:1059B8002CF0D00E156EFF0E166E11C0F6FF12C039
:1059C800F7FF000EF86E0E0EF76403D00800F550CE
:1059D80005D0F6CFE9FFF7CFEAFFEF50176E186A48
:1059E800155017261650182218500AE10A0E175C8F
:1059F800D8A001EF2DF004EF2DF0010E05EF2DF0EA
:105A0800000E1E6E1F6A1E501F10D8A40EEF2DF038
:105A180010EF2DF0A3EF2CF01A501B10D8A417EF9D
:105A28002DF019EF2DF034EF2DF021C015F022C024
:105A380016F023C017F024C018F0151E161E171EE6
:105A4800181E152A000E16221722182215C011F04A
:105A580016C012F017C013F018C014F03CEF2DF068
:105A680021C011F022C012F023C013F024C014F09A
:105A78001200546EFF0E00018C6FFF0E8D6FFF0E2B
:105A88008E6FFF0E8F6F000E916F440E906F000E99
:105A9800936F430E926FD2EC60F0536E5304D8A408
:105AA80058EF2DF05AEF2DF05CEF2EF0000E066E39
:105AB800060E076E010E086E010E096EC4EC68F042
:105AC800C9C306F0CAC307F0CBC308F0CCC309F0BA
